:100000000C946E010C949F010C949F010C949F0121
:100010000C949F010C949F010C949F010C949F01E0
:100020000C949F010C949F010C949F010C949F01D0
:100030000C949F010C949F010C949F010C949F01C0
:100040000C949F010C949F010C949F010C949F01B0
:100050000C949F010C949F010C949F010C94F80444
:100060000C949F010C946C050C9442050C949F0118
:100070000C949F010C949F010C949F010C949F0180
:100080000C949F010C949F010C949F010C949F0170
:100090000C949F010C949F010C949F010C949F0160
:1000A0000C949F010C949F010C949F010C949F0150
:1000B0000C949F010C949F010C949F010C949F0140
:1000C0000C949F010C949F010C949F010C949F0130
:1000D0000C949F010C949F010C949F010C949F0120
:1000E0000C949F01EF01F201E101E501E901290210
:1000F000F601FA010002040208020E0212021602C0
:1001000029021C022002240265026A026F0279029F
:100110008302FC028D0295029D02A702B102BB027E
:10012000CA02D402FC02DE02E802F2020C94E802E7
:100130000C9408040C9429020C947C030C9468031E
:100140000C946A020C94B1020C940E020C94EC080C
:100150000C942A030C9424020C94EF010C94FC02DE
:100160000C9404020C9412020C948A030C94200246
:100170000C949D020C94E5010C94F2010C94A702DE
:100180000C948D020C9400020C9495020C94D402F1
:100190000C946F020C94BB020C9416020C9459033D
:1001A0000C94F6010C94F2020C94C1030C94E1013E
:1001B0000C941C020C9483020C94E9010C94CA0266
:1001C0000C9465020C9479020C9408020C94DE02E3
:1001D0000C94FA0100000A0B02090C0D0E0807032B
:1001E000040100000000000000000000000000000A
:1001F00000000000000000000000000000000000FF
:1002000012111000000000000000000000000000BB
:100210000000000000000000000000002200250097
:1002200028002B002E0031003400020100000501DF
:1002300008010B0100002100240027002A002D00E6
:100240003000330001010000040107010A01050527
:100250000505070508080808020202020A0A08083C
:10026000040404040101010101010101030303036A
:1002700003030303040707070C0C0C0C0C0C0C0CF9
:100280000202020206060606060606060B0B0B0B0A
:100290000B0B0B0B0102102020080810204010202F
:1002A000408002010201080402010102040810203A
:1002B0004080804020100804020180040201804038
:1002C00020100804020108040201010204081020A1
:1002D00040800102040810204080EC0811241FBE59
:1002E000CFEFD1E2DEBFCDBF00E00CBF12E0A0E057
:1002F000B2E0E2EDF2E100E00BBF02C007900D9228
:10030000A837B107D9F723E0A8E7B2E001C01D92F2
:10031000AF35B207E1F711E0CEE6D1E000E006C06C
:1003200021970109802FFE010E945A09CD36D1077D
:1003300080E00807A9F70E94A2050C9467090C94B5
:10034000000090E0FC01EC56FD4F2491FC01E25BC3
:10035000FD4F8491882399F090E0880F991FFC014C
:10036000EC5CFD4FA591B491FC01E65EFD4F8591DB
:1003700094918FB7F894EC91E22BEC938FBF089592
:10038000362F90E0FC01EC52FE4F4491FC01EC56FC
:10039000FD4F2491FC01E25BFD4F9491992309F4F8
:1003A0006BC0442309F455C050E0FA013197E231A3
:1003B000F10508F04EC08827EE58FF4F8F4F0C9480
:1003C0005A09809180008F7707C0809180008F7DCF
:1003D00003C080918000877F809380003AC084B5FD
:1003E0008F7702C084B58F7D84BD33C08091B0000B
:1003F0008F7703C08091B0008F7D8093B00029C0BB
:10040000809190008F7707C0809190008F7D03C00E
:1004100080919000877F809390001BC08091A00006
:100420008F7707C08091A0008F7D03C08091A000CE
:10043000877F8093A0000DC0809120018F7707C037
:10044000809120018F7D03C080912001877F809360
:100450002001E92FF0E0EE0FFF1FE65EFD4FA591B2
:10046000B4918FB7F894EC91311103C020952E23ED
:1004700001C02E2B2C938FBF08951F93CF93DF9332
:10048000182FEB010E94A101209711F460E004C035
:10049000CF3FD10539F461E0812FDF91CF911F91DA
:1004A0000C94C001E12FF0E0EC52FE4FE4914E2F8E
:1004B00050E0FA013197E231F10508F09DC088273C
:1004C000EC57FF4F8F4F0C945A0984B5806884BD58
:1004D000C7BD97C084B5806284BDC8BD92C08091FD
:1004E0008000806880938000D0938900C09388004A
:1004F00088C080918000806280938000D0938B00C0
:10050000C0938A007EC080918000886080938000C4
:10051000D0938D00C0938C0074C08091B00080682F
:100520008093B000C093B3006CC08091B000806233
:100530008093B000C093B40064C080919000806844
:1005400080939000D0939900C09398005AC08091F6
:100550009000806280939000D0939B00C0939A009B
:1005600050C080919000886080939000D0939D004F
:10057000C0939C0046C08091A00080688093A0003A
:100580008091A0008F7B8093A000D093A900C0939E
:10059000A80037C08091A00080628093A000D09313
:1005A000AB00C093AA002DC08091A000886080930A
:1005B000A000D093AD00C093AC0023C08091200177
:1005C000806880932001D0932901C093280119C02D
:1005D00080912001806280932001D0932B01C093F1
:1005E0002A010FC080912001886080932001D09360
:1005F0002D01C0932C0105C0C038D1050CF04BCFA4
:1006000045CFDF91CF911F9108953FB7F894809126
:10061000BE029091BF02A091C002B091C10226B566
:10062000A89B05C02F3F19F00196A11DB11D3FBF2A
:10063000BA2FA92F982F8827820F911DA11DB11DB8
:10064000BC01CD0142E0660F771F881F991F4A95B4
:10065000D1F70895CF92DF92EF92FF920F931F93FD
:10066000CF93DF936C017A018B01C0E0D0E0CE150F
:10067000DF0589F0D8016D918D01D601ED91FC91D6
:100680000190F081E02DC6011995892B11F47E01AE
:1006900002C02196ECCFC701DF91CF911F910F913E
:1006A000FF90EF90DF90CF900895089580E090E064
:1006B0000895FC01538D448D252F30E0842F90E068
:1006C000821B930B541710F0CF960895019708954D
:1006D000FC01918D828D981761F0828DDF01A80F4A
:1006E000B11D5D968C91928D9F5F9F73928F90E06C
:1006F00008958FEF9FEF0895FC01918D828D9817DB
:1007000031F0828DE80FF11D858D90E008958FEF17
:100710009FEF0895FC01918D228D892F90E0805CE0
:100720009F4F821B91098F739927089582EC92E065
:100730000E948A0321E0892B09F420E0822F08958A
:10074000FC01848DDF01A80FB11DA35ABF4F2C916E
:10075000848D90E001968F739927848FA689B7893D
:100760002C93A089B1898C9180648C93938D848D16
:10077000981306C00288F389E02D80818F7D8083E5
:100780000895EF92FF920F931F93CF93DF93EC01A5
:1007900081E0888F9B8D8C8D981305C0E889F9893D
:1007A000808185FD24C0F62E0B8D10E00F5F1F4F5A
:1007B0000F731127E02E8C8DE8120CC00FB607FCCA
:1007C000FACFE889F989808185FFF5CFCE010E94B3
:1007D000A003F1CF8B8DFE01E80FF11DE35AFF4F0F
:1007E000F0820B8FEA89FB898081806207C0EE89E5
:1007F000FF896083E889F98980818064808381E052
:1008000090E0DF91CF911F910F91FF90EF900895AD
:10081000CF93DF93EC01888D8823C9F0EA89FB89A7
:10082000808185FD05C0A889B9898C9186FD0FC09E
:100830000FB607FCF5CF808185FFF2CFA889B98973
:100840008C9185FFEDCFCE010E94A003E7CFDF9111
:10085000CF91089508950E94960380E090E0892B3F
:1008600041F080E090E0892B21F00E94000081118E
:1008700019C080E090E0892B41F080E090E0892B66
:1008800021F00E940000811110C080E090E0892BCF
:1008900089F080E090E0892B69F00E9400008111CE
:1008A00007C008950E940000E4CF0E940000EDCF31
:1008B0000C9400000895009769F0FC01019000205D
:1008C000E9F73197AF01481B590BBC0182EC92E06C
:1008D0000C942A0380E090E00895CF93DF930E9468
:1008E0005B04EC0182E492E00E945B048C0F9D1F8C
:1008F000DF91CF9108958F929F92AF92BF92CF9246
:10090000DF92EF92FF920F931F93CF93DF93CDB7B8
:10091000DEB7A1970FB6F894DEBF0FBECDBF6C0156
:10092000990FEE08FF08F7FE31C0E091C202F09186
:10093000C3020190F081E02D6DE282EC92E0199506
:100940008C0122273327A9012C193D094E095F0983
:1009500019A2CE0181967C019AE0892E912CA12CBE
:10096000B12CCA01B901A50194010E943809605D4A
:10097000F70162937F01211531054105510589F782
:10098000CF010E945B04800F911F1DC0A70196013B
:1009900019A28E010F5D1F4F8AE0C82ED12CE12CC9
:1009A000F12CCA01B901A70196010E943809605DC6
:1009B000F80162938F01211531054105510589F731
:1009C000CF010E945B04A1960FB6F894DEBF0FBE64
:1009D000CDBFDF91CF911F910F91FF90EF90DF90EE
:1009E000CF90BF90AF909F908F9008950E94620922
:1009F0001F920F920FB60F9211242F933F938F9354
:100A00009F93AF93BF938091BA029091BB02A09144
:100A1000BC02B091BD023091B90223E0230F2D3703
:100A200020F40196A11DB11D05C026E8230F0296F2
:100A3000A11DB11D2093B9028093BA029093BB020D
:100A4000A093BC02B093BD028091BE029091BF0200
:100A5000A091C002B091C1020196A11DB11D809369
:100A6000BE029093BF02A093C002B093C102BF9197
:100A7000AF919F918F913F912F910F900FBE0F904B
:100A80001F9018951F920F920FB60F9211240BB65C
:100A90000F922F933F934F935F936F937F938F9317
:100AA0009F93AF93BF93EF93FF9382EC92E00E94EA
:100AB000A003FF91EF91BF91AF919F918F917F9193
:100AC0006F915F914F913F912F910F900BBE0F90BF
:100AD0000FBE0F901F9018951F920F920FB60F9296
:100AE00011240BB60F922F938F939F93EF93FF9345
:100AF000E091D202F091D3028081E091D802F0918E
:100B0000D90282FD12C090818091DB028F5F8F73CA
:100B10002091DC02821751F0E091DB02F0E0EE530D
:100B2000FD4F958F8093DB0201C08081FF91EF9193
:100B30009F918F912F910F900BBE0F900FBE0F9032
:100B40001F901895789484B5826084BD84B58160C7
:100B500084BD85B5826085BD85B5816085BD809188
:100B60006E00816080936E00109281008091810000
:100B700082608093810080918100816080938100F8
:100B8000809180008160809380008091B1008460BA
:100B90008093B1008091B00081608093B00080911B
:100BA0009100826080939100809191008160809398
:100BB0009100809190008160809390008091A100CD
:100BC00082608093A1008091A10081608093A10048
:100BD0008091A00081608093A000809121018260BB
:100BE0008093210180912101816080932101809176
:100BF000200181608093200180917A00846080933D
:100C00007A0080917A00826080937A0080917A00E5
:100C1000816080937A0080917A00806880937A0066
:100C20001092C100E091D202F091D30282E0808361
:100C3000E091CE02F091CF021082E091D002F091CB
:100C4000D10287E680831092DA02E091D602F09119
:100C5000D70286E08083E091D402F091D5028081B2
:100C600080618083E091D402F091D5028081886018
:100C70008083E091D402F091D502808180688083E6
:100C8000E091D402F091D50280818F7D8083CFB72F
:100C9000F89480917802811124C0E3E8F2E0849115
:100CA000E9ECF2E09491E82FF0E0EE0FFF1FEC5C2E
:100CB000FD4FA591B491EC91E92321F461E085E326
:100CC0000E94C00185E30E94A1018CB580618CBDAA
:100CD0008CB580648CBD84E30E94A10183E30E94F3
:100CE000A101809178028F5F80937802CFBF8CB58D
:100CF00080628CBD8CB5837F84608CBD1092A30212
:100D00001092A4021092A5021092A6021092B802AC
:100D10001092B702C091B702D091B802C630D10587
:100D200014F5FE01EE5EFD4F1081812F0E94A1019E
:100D300060E0812F0E94C001FE01E25EFD4F8081D4
:100D40000E94A101FE01E85EFD4F1081812F0E94EB
:100D5000A10160E0812F0E94C0012196D093B802CA
:100D6000C093B702D7CF88E10E94A10189E10E9418
:100D7000A10161E088E10E94C00161E089E10E9477
:100D8000C0011092B8021092B7021CE004E08091FA
:100D9000B7029091B8028630910524F5FC01EE5E11
:100DA000FD4F60E080810E94C0011EBD00000DB4B7
:100DB00007FEFDCF8EB50EBD00000DB407FEFDCFC2
:100DC0008EB5C091B702D091B802FE01EE5EFD4F24
:100DD00061E080810E94C0012196D093B802C09347
:100DE000B702D5CF60E088E10E94C00160E089E1F0
:100DF0000E94C0011092B8021092B702C091B702CF
:100E0000D091B802C630D105C4F48E010150110949
:100E1000F801E25EFD4F60E080810E94C001F801B0
:100E2000E85EFD4F6FEF73E080810E943D022196E6
:100E3000D093B802C093B702E1CF0E9405036B01C3
:100E40007C01E0EA8E2EEFE09E2EA12CB12C0E94B8
:100E50000503DC01CB018C199D09AE09BF09883E51
:100E60009340A105B10558F021E0821A9108A1082C
:100E7000B10888EEC80E83E0D81EE11CF11C811475
:100E80009104A104B10419F780E090E020E030E083
:100E9000FC01E956FD4F11821082FC01E557FD4F20
:100EA000118210822F5F3F4F02962630310581F765
:100EB000DD24D394EE24E394F12C04E610E01092A8
:100EC000B8021092B7028091B7029091B8028630B2
:100ED00091050CF05EC0EC01CC0FDD1FFE01EA5C59
:100EE000FD4F208131812901330F66087708FE010B
:100EF000E65DFD4F80809180092C000CAA08BB089C
:100F0000FC01EC5DFD4F8081863308F086539091A3
:100F10007B00682F6870977F962B90937B0087707B
:100F2000806480937C0080917A00806480937A0052
:100F300080917A0086FDFCCF6091780080917900E5
:100F400070E0782BCB01770FAA0BBB0B881999099E
:100F5000AA09BB09BC01CD015AE0660F771F881FA3
:100F6000991F5A95D1F7A3019201281939094A0905
:100F70005B090E941909C555DD4F3983288380918B
:100F8000B7029091B80201969093B8028093B7028D
:100F90009ACF82EC92E00E948A032FB7F894809156
:100FA000BA029091BB02A091BC02B091BD022FBFCA
:100FB0008093A7029093A802A093A902B093AA02DB
:100FC0004091A3025091A4026091A5027091A602E3
:100FD000841B950BA60BB70B893E9340A105B10569
:100FE00008F48EC085E492E00E946D041092B8026D
:100FF0001092B7028091B7029091B80286309105A5
:10100000BCF4880F991FFC01E956FD4F8081918146
:101010000E947B0487E592E00E945B048091B70206
:101020009091B80201969093B8028093B702E2CFF4
:1010300084E492E00E946D0489E592E00E946D04D0
:101040001092B8021092B7028091B7029091B80244
:1010500086309105BCF4880F991FFC01E555FD4FC2
:10106000808191810E947B0487E592E00E945B046D
:101070008091B7029091B80201969093B802809344
:10108000B702E2CF84E492E00E946D048DE692E024
:101090000E946D041092B8021092B7028091B702BC
:1010A0009091B80286309105BCF4880F991FFC011D
:1010B000E557FD4F808191810E947B0487E592E096
:1010C0000E945B048091B7029091B80201969093C0
:1010D000B8028093B702E2CF84E492E00E946D04EC
:1010E0008091A7029091A802A091A902B091AA02B2
:1010F0008093A3029093A402A093A502B093A602AA
:101100001092B8021092B702A090B702B090B80245
:1011100026E0A216B1040CF05CC0E501CC0FDD1F87
:10112000DE01A555BD4FFE01E956FD4F8D919C9105
:1011300020813181821B930B0196F501EB57FD4F06
:10114000039738F4D082DE01A557BD4F1D921C9243
:1011500001C010828081811120C0FE01E555FD4F44
:1011600020813181FE01E956FD4F808191818217F6
:10117000930734F4FE01E758FD4F1182108208C036
:101180002817390754F4FE01E758FD4FF182E08239
:10119000FE01E557FD4F11830083DE01A758BD4FC7
:1011A000F501E25EFD4F6C9180810E94C001C55740
:1011B000DD4F68817981F501E85EFD4F80810E94F5
:1011C0003D028FEFA81AB80AB092B802A092B702F7
:1011D0009BCF0E942B0473CEE2ECF2E013821282CA
:1011E00088EE93E0A0E0B0E084839583A683B78384
:1011F00084E092E09183808385EC90E095878487FA
:1012000084EC90E09787868780EC90E0918B808BD0
:1012100081EC90E0938B828B82EC90E0958B848BB9
:1012200086EC90E0978B868B118E128E138E148E27
:101230000895052E97FB1EF400940E94300957FD77
:1012400007D00E94380907FC03D04EF40C943009F3
:1012500050954095309521953F4F4F4F5F4F0895E2
:1012600090958095709561957F4F8F4F9F4F089512
:10127000A1E21A2EAA1BBB1BFD010DC0AA1FBB1F9A
:10128000EE1FFF1FA217B307E407F50720F0A21B0C
:10129000B30BE40BF50B661F771F881F991F1A9479
:1012A00069F760957095809590959B01AC01BD01A3
:1012B000CF010895EE0FFF1F881F8BBF0790F69197
:1012C000E02D199481E090E0F8940C946709F8946B
:0212D000FFCF4E
:1012D20000000000C1032A03590308048A036803BB
:1012E2007C032A28262422200D0C0B0A09082B290C
:1012F200272523213E3F40414243C700BA00C20096
:10130200C200C000C70041033B033A033D033F0351
:1013120041030D0A004465736972656420506F735E
:101322006974696F6E733A200043757272656E74E8
:1013320020506F736974696F6E733A200050574D75
:081342002056616C7565730013
:00000001FF
